0        04EXTRATO C/C    00000000000841407477    0000                      001BANCO DO BRASIL11022001600BPI01409580000138 911088468                                                 1102202004001000001
10201409580000138008600000000000000729000000000000000321238841407477004         100220000000000000000000C00000000000000000000000000000000000000000000000000000000000000000000        1002202004001000002
1020140958000013800860000000000000072900012040670TARIFA EXTRATO           004794110220000000000000000475000000141130000000      0000670100420800004794                       000000001102202004001000003
1020140958000013800860000000000000072900012040670TARIFA EXTRATO           004794110220000000000000000475000000141130000000      0000670100420800004794                       000000001102202004001000004
1020140958000013800860000000000000072900011050263TARIFA EXTRATO           207561110220000000000000000475000000131130000000      0000263820421200207561                       000000001102202004001000005
1020140958000013800860000000000000072900020000000000000000000000000000000000    110220000000000000000475CF0000003884566030000000000000000000000000000000000000000000000000000000000  1102202004001000006
90000100000300000000000004750000000000000950                                                                                                                                                 04001000007
