0        04EXTRATO C/C    00000000000841407477    0000                      001BANCO DO BRASIL10022001600BPI01409580000138 911088468                                                 1002202004001000001
10201409580000138008600000000000000729000000000000000321238841407477003         070220000000000000999525C00000000000000000000000000000000000000000000000000000000000000000000        0702202004001000002
1020140958000013800860000000000000072900012050952FPE-FPM                  000350100220000000001467826855000000140110000000      0000952000000000000350                       000000001002202004001000003
1020140958000013800860000000000000072900012050952FPE-FPM                  000350100220000000023394527104000000140110000000      0000952000000000000350                       000000001002202004001000004
1020140958000013800860000000000000072900011040350COTA DAF-D               000850100220000000000248623539000000130110000000      0000350000000000000850                       000000001002202004001000005
1020140958000013800860000000000000072900011040350COTA DAF-D               000850100220000000004972470791000000130110000000      0000350000000000000850                       000000001002202004001000006
1020140958000013800860000000000000072900011050263TARIFA EXTRATO           344910100220000000000000000475000000131130000000      0000263890411200344910                       000000001002202004001000007
1020140958000013800860000000000000072900011060345BB CP ADM DIFER          000071100220000000019642258679000000000000000000      0000345000000000000071                       000000001002202004001000008
1020140958000013800860000000000000072900020000000000000000000000000000000000    100220000000000000000000CF0000003884012140000000000000000000000000000000000000000000000000000000000  1002202004001000009
90000100000600000248633534840000024862353959                                                                                                                                                 04001000010
